{
  "contractName": "PassageMain",
  "abi": [
    {
      "constant": true,
      "inputs": [
        {
          "name": "",
          "type": "uint256"
        }
      ],
      "name": "productToOwner",
      "outputs": [
        {
          "name": "",
          "type": "address"
        }
      ],
      "payable": false,
      "stateMutability": "view",
      "type": "function"
    },
    {
      "constant": true,
      "inputs": [
        {
          "name": "",
          "type": "uint256"
        }
      ],
      "name": "products",
      "outputs": [
        {
          "name": "name",
          "type": "string"
        },
        {
          "name": "description",
          "type": "string"
        },
        {
          "name": "location",
          "type": "string"
        }
      ],
      "payable": false,
      "stateMutability": "view",
      "type": "function"
    },
    {
      "constant": true,
      "inputs": [],
      "name": "owner",
      "outputs": [
        {
          "name": "",
          "type": "address"
        }
      ],
      "payable": false,
      "stateMutability": "view",
      "type": "function"
    },
    {
      "constant": false,
      "inputs": [
        {
          "name": "newOwner",
          "type": "address"
        }
      ],
      "name": "transferOwnership",
      "outputs": [],
      "payable": false,
      "stateMutability": "nonpayable",
      "type": "function"
    },
    {
      "anonymous": false,
      "inputs": [
        {
          "indexed": false,
          "name": "newProductId",
          "type": "uint256"
        },
        {
          "indexed": false,
          "name": "name",
          "type": "string"
        },
        {
          "indexed": false,
          "name": "description",
          "type": "string"
        },
        {
          "indexed": false,
          "name": "location",
          "type": "string"
        }
      ],
      "name": "ProductCreated",
      "type": "event"
    },
    {
      "anonymous": false,
      "inputs": [
        {
          "indexed": false,
          "name": "productId",
          "type": "uint256"
        }
      ],
      "name": "ProductDetailsUpdated",
      "type": "event"
    },
    {
      "anonymous": false,
      "inputs": [
        {
          "indexed": false,
          "name": "productId",
          "type": "uint256"
        }
      ],
      "name": "ProductMarkedAsSold",
      "type": "event"
    },
    {
      "anonymous": false,
      "inputs": [
        {
          "indexed": true,
          "name": "previousOwner",
          "type": "address"
        },
        {
          "indexed": true,
          "name": "newOwner",
          "type": "address"
        }
      ],
      "name": "OwnershipTransferred",
      "type": "event"
    },
    {
      "constant": false,
      "inputs": [
        {
          "name": "_name",
          "type": "string"
        },
        {
          "name": "_description",
          "type": "string"
        },
        {
          "name": "_location",
          "type": "string"
        }
      ],
      "name": "createProduct",
      "outputs": [],
      "payable": false,
      "stateMutability": "nonpayable",
      "type": "function"
    },
    {
      "constant": true,
      "inputs": [
        {
          "name": "index",
          "type": "uint256"
        }
      ],
      "name": "getProductById",
      "outputs": [
        {
          "name": "",
          "type": "string"
        },
        {
          "name": "",
          "type": "string"
        },
        {
          "name": "",
          "type": "string"
        }
      ],
      "payable": false,
      "stateMutability": "view",
      "type": "function"
    },
    {
      "constant": false,
      "inputs": [
        {
          "name": "_productId",
          "type": "uint256"
        }
      ],
      "name": "_editProduct",
      "outputs": [],
      "payable": false,
      "stateMutability": "nonpayable",
      "type": "function"
    },
    {
      "constant": false,
      "inputs": [
        {
          "name": "_productId",
          "type": "uint256"
        }
      ],
      "name": "_getProductPublicDataById",
      "outputs": [],
      "payable": false,
      "stateMutability": "nonpayable",
      "type": "function"
    },
    {
      "constant": false,
      "inputs": [
        {
          "name": "_productId",
          "type": "uint256"
        }
      ],
      "name": "_markProductAsSold",
      "outputs": [],
      "payable": false,
      "stateMutability": "nonpayable",
      "type": "function"
    }
  ],
  "bytecode": "0x6060604052336000806101000a81548173ffffffffffffffffffffffffffffffffffffffff021916908373ffffffffffffffffffffffffffffffffffffffff160217905550610ed6806100536000396000f300606060405260043610610099576000357c0100000000000000000000000000000000000000000000000000000000900463ffffffff1680633f70c2b41461009e578063420fadc8146102125780637813adaa14610275578063794e7aba146102985780637acc0b20146102bb5780638da5cb5b146104865780639c529d2a146104db578063d768468b146104fe578063f2fde38b146105e1575b600080fd5b34156100a957600080fd5b6100bf600480803590602001909190505061061a565b60405180806020018060200180602001848103845287818151815260200191508051906020019080838360005b838110156101075780820151818401526020810190506100ec565b50505050905090810190601f1680156101345780820380516001836020036101000a031916815260200191505b50848103835286818151815260200191508051906020019080838360005b8381101561016d578082015181840152602081019050610152565b50505050905090810190601f16801561019a5780820380516001836020036101000a031916815260200191505b50848103825285818151815260200191508051906020019080838360005b838110156101d35780820151818401526020810190506101b8565b50505050905090810190601f1680156102005780820380516001836020036101000a031916815260200191505b50965050505050505060405180910390f35b341561021d57600080fd5b6102336004808035906020019091905050610873565b604051808273ffffffffffffffffffffffffffffffffffffffff1673ffffffffffffffffffffffffffffffffffffffff16815260200191505060405180910390f35b341561028057600080fd5b61029660048080359060200190919050506108a6565b005b34156102a357600080fd5b6102b960048080359060200190919050506108a9565b005b34156102c657600080fd5b6102dc60048080359060200190919050506108ac565b6040518080602001806020018060200184810384528781815460018160011615610100020316600290048152602001915080546001816001161561010002031660029004801561036d5780601f106103425761010080835404028352916020019161036d565b820191906000526020600020905b81548152906001019060200180831161035057829003601f168201915b50508481038352868181546001816001161561010002031660029004815260200191508054600181600116156101000203166002900480156103f05780601f106103c5576101008083540402835291602001916103f0565b820191906000526020600020905b8154815290600101906020018083116103d357829003601f168201915b50508481038252858181546001816001161561010002031660029004815260200191508054600181600116156101000203166002900480156104735780601f1061044857610100808354040283529160200191610473565b820191906000526020600020905b81548152906001019060200180831161045657829003601f168201915b5050965050505050505060405180910390f35b341561049157600080fd5b6104996108e2565b604051808273ffffffffffffffffffffffffffffffffffffffff1673ffffffffffffffffffffffffffffffffffffffff16815260200191505060405180910390f35b34156104e657600080fd5b6104fc6004808035906020019091905050610907565b005b341561050957600080fd5b6105df600480803590602001908201803590602001908080601f0160208091040260200160405190810160405280939291908181526020018383808284378201915050505050509190803590602001908201803590602001908080601f0160208091040260200160405190810160405280939291908181526020018383808284378201915050505050509190803590602001908201803590602001908080601f0160208091040260200160405190810160405280939291908181526020018383808284378201915050505050509190505061090a565b005b34156105ec57600080fd5b610618600480803573ffffffffffffffffffffffffffffffffffffffff16906020019091905050610bd3565b005b610622610d28565b61062a610d28565b610632610d28565b60018481548110151561064157fe5b906000526020600020906003020160000160018581548110151561066157fe5b906000526020600020906003020160010160018681548110151561068157fe5b9060005260206000209060030201600201828054600181600116156101000203166002900480601f0160208091040260200160405190810160405280929190818152602001828054600181600116156101000203166002900480156107275780601f106106fc57610100808354040283529160200191610727565b820191906000526020600020905b81548152906001019060200180831161070a57829003601f168201915b50505050509250818054600181600116156101000203166002900480601f0160208091040260200160405190810160405280929190818152602001828054600181600116156101000203166002900480156107c35780601f10610798576101008083540402835291602001916107c3565b820191906000526020600020905b8154815290600101906020018083116107a657829003601f168201915b50505050509150808054600181600116156101000203166002900480601f01602080910402602001604051908101604052809291908181526020018280546001816001161561010002031660029004801561085f5780601f106108345761010080835404028352916020019161085f565b820191906000526020600020905b81548152906001019060200180831161084257829003601f168201915b505050505090509250925092509193909250565b60026020528060005260406000206000915054906101000a900473ffffffffffffffffffffffffffffffffffffffff1681565b50565b50565b6001818154811015156108bb57fe5b90600052602060002090600302016000915090508060000190806001019080600201905083565b6000809054906101000a900473ffffffffffffffffffffffffffffffffffffffff1681565b50565b600060018080548060010182816109219190610d3c565b91600052602060002090600302016000606060405190810160405280898152602001888152602001878152509091909150600082015181600001908051906020019061096e929190610d6e565b50602082015181600101908051906020019061098b929190610d6e565b5060408201518160020190805190602001906109a8929190610d6e565b505050039050336002600083815260200190815260200160002060006101000a81548173ffffffffffffffffffffffffffffffffffffffff021916908373ffffffffffffffffffffffffffffffffffffffff160217905550600360003373ffffffffffffffffffffffffffffffffffffffff1673ffffffffffffffffffffffffffffffffffffffff168152602001908152602001600020600081548092919060010191905055507f1550ffc404b3c1d24b9e8386fb637b66710fc7771635cf9b09d5ee2ae92963338185858560405180858152602001806020018060200180602001848103845287818151815260200191508051906020019080838360005b83811015610ac2578082015181840152602081019050610aa7565b50505050905090810190601f168015610aef5780820380516001836020036101000a031916815260200191505b50848103835286818151815260200191508051906020019080838360005b83811015610b28578082015181840152602081019050610b0d565b50505050905090810190601f168015610b555780820380516001836020036101000a031916815260200191505b50848103825285818151815260200191508051906020019080838360005b83811015610b8e578082015181840152602081019050610b73565b50505050905090810190601f168015610bbb5780820380516001836020036101000a031916815260200191505b5097505050505050505060405180910390a150505050565b6000809054906101000a900473ffffffffffffffffffffffffffffffffffffffff1673ffffffffffffffffffffffffffffffffffffffff163373ffffffffffffffffffffffffffffffffffffffff16141515610c2e57600080fd5b600073ffffffffffffffffffffffffffffffffffffffff168173ffffffffffffffffffffffffffffffffffffffff1614151515610c6a57600080fd5b8073ffffffffffffffffffffffffffffffffffffffff166000809054906101000a900473ffffffffffffffffffffffffffffffffffffffff1673ffffffffffffffffffffffffffffffffffffffff167f8be0079c531659141344cd1fd0a4f28419497f9722a3daafe3b4186f6b6457e060405160405180910390a3806000806101000a81548173ffffffffffffffffffffffffffffffffffffffff021916908373ffffffffffffffffffffffffffffffffffffffff16021790555050565b602060405190810160405280600081525090565b815481835581811511610d6957600302816003028360005260206000209182019101610d689190610dee565b5b505050565b828054600181600116156101000203166002900490600052602060002090601f016020900481019282601f10610daf57805160ff1916838001178555610ddd565b82800160010185558215610ddd579182015b82811115610ddc578251825591602001919060010190610dc1565b5b509050610dea9190610e3d565b5090565b610e3a91905b80821115610e365760008082016000610e0d9190610e62565b600182016000610e1d9190610e62565b600282016000610e2d9190610e62565b50600301610df4565b5090565b90565b610e5f91905b80821115610e5b576000816000905550600101610e43565b5090565b90565b50805460018160011615610100020316600290046000825580601f10610e885750610ea7565b601f016020900490600052602060002090810190610ea69190610e3d565b5b505600a165627a7a72305820f2c07d2d2b095a86764f0f00db514319a92a2da05352d7634df9f1a796790d300029",
  "source": "pragma solidity ^0.4.19;\n\nimport \"./PassageHelper.sol\";\n\ncontract PassageMain is PassageHelper {\n    \n    event ProductCreated(uint newProductId, string name, string description, string location);\n    \n    event ProductDetailsUpdated(uint productId);\n    \n    event ProductMarkedAsSold(uint productId);\n\n    struct Actor {\n        string name;\n        string physicalAddress; // Physical address, may be separated (more costly)\n        string accountAddress; // Ethereum address\n        string actorType; // Actor type (industry expert, governmental agency, etc.). Should be a uint16 and reference another struct maybe?\n    }\n\n    struct Certification {\n        string name;\n        uint16 deliveringActor; // Agency/company behind the certification\n    }\n    \n    struct Product {\n        string name;\n        string description;\n        //string qrCode; // base64 representation of the QR code?\n        string location;\n        //Certification[] certifications;\n    }\n\n    Product[] public products;\n\n    mapping (uint => address) public productToOwner;\n    mapping (address => uint) ownerProductCount;\n\n    function createProduct(string _name, string _description, string _location) public {\n        uint newProductId = products.push(Product(_name, _description, _location)) - 1;\n        productToOwner[newProductId] = msg.sender;\n        ownerProductCount[msg.sender]++;\n        ProductCreated(newProductId, _name, _description, _location);\n    }\n\n    function getProductById(uint index) external view returns(string, string, string) {\n        return (products[index].name, products[index].description, products[index].location);\n    }\n\n    function _editProduct(uint _productId) {\n        \n    }\n\n    function _getProductPublicDataById(uint _productId) {\n        \n    }\n\n    function _markProductAsSold(uint _productId) {\n        \n    }\n}",
  "sourcePath": "/home/mv/edu/usherbrooke/s5-h18/ige592/Passage_Project/contracts/PassageMain.sol",
  "compiler": {
    "name": "solc",
    "version": "0.4.19+commit.c4cbbb05.Emscripten.clang"
  },
  "schemaVersion": "1.0.1",
  "updatedAt": "2018-02-09T00:58:14.771Z"
}