{
  "contractName": "PassageMain",
  "abi": [
    {
      "constant": true,
      "inputs": [
        {
          "name": "",
          "type": "uint256"
        },
        {
          "name": "",
          "type": "uint256"
        }
      ],
      "name": "initialProductToSubsequentVersions",
      "outputs": [
        {
          "name": "",
          "type": "uint256"
        }
      ],
      "payable": false,
      "stateMutability": "view",
      "type": "function"
    },
    {
      "constant": true,
      "inputs": [
        {
          "name": "",
          "type": "uint256"
        }
      ],
      "name": "certifications",
      "outputs": [
        {
          "name": "name",
          "type": "string"
        },
        {
          "name": "deliveringActor",
          "type": "uint16"
        }
      ],
      "payable": false,
      "stateMutability": "view",
      "type": "function"
    },
    {
      "constant": true,
      "inputs": [
        {
          "name": "",
          "type": "uint256"
        }
      ],
      "name": "productToOwner",
      "outputs": [
        {
          "name": "",
          "type": "address"
        }
      ],
      "payable": false,
      "stateMutability": "view",
      "type": "function"
    },
    {
      "constant": true,
      "inputs": [
        {
          "name": "",
          "type": "uint256"
        }
      ],
      "name": "products",
      "outputs": [
        {
          "name": "productId",
          "type": "uint256"
        },
        {
          "name": "latestIterationId",
          "type": "uint256"
        }
      ],
      "payable": false,
      "stateMutability": "view",
      "type": "function"
    },
    {
      "constant": true,
      "inputs": [],
      "name": "owner",
      "outputs": [
        {
          "name": "",
          "type": "address"
        }
      ],
      "payable": false,
      "stateMutability": "view",
      "type": "function"
    },
    {
      "constant": true,
      "inputs": [
        {
          "name": "",
          "type": "uint256"
        }
      ],
      "name": "actors",
      "outputs": [
        {
          "name": "name",
          "type": "string"
        },
        {
          "name": "physicalAddress",
          "type": "string"
        },
        {
          "name": "accountAddress",
          "type": "string"
        },
        {
          "name": "actorType",
          "type": "string"
        }
      ],
      "payable": false,
      "stateMutability": "view",
      "type": "function"
    },
    {
      "constant": true,
      "inputs": [
        {
          "name": "",
          "type": "address"
        }
      ],
      "name": "ownerProductCount",
      "outputs": [
        {
          "name": "",
          "type": "uint256"
        }
      ],
      "payable": false,
      "stateMutability": "view",
      "type": "function"
    },
    {
      "constant": false,
      "inputs": [
        {
          "name": "newOwner",
          "type": "address"
        }
      ],
      "name": "transferOwnership",
      "outputs": [],
      "payable": false,
      "stateMutability": "nonpayable",
      "type": "function"
    },
    {
      "anonymous": false,
      "inputs": [
        {
          "indexed": false,
          "name": "newProductId",
          "type": "uint256"
        },
        {
          "indexed": false,
          "name": "name",
          "type": "string"
        },
        {
          "indexed": false,
          "name": "description",
          "type": "string"
        },
        {
          "indexed": false,
          "name": "location",
          "type": "string"
        }
      ],
      "name": "ProductCreated",
      "type": "event"
    },
    {
      "anonymous": false,
      "inputs": [
        {
          "indexed": false,
          "name": "productId",
          "type": "uint256"
        }
      ],
      "name": "ProductDetailsUpdated",
      "type": "event"
    },
    {
      "anonymous": false,
      "inputs": [
        {
          "indexed": false,
          "name": "productId",
          "type": "uint256"
        }
      ],
      "name": "ProductMarkedAsSold",
      "type": "event"
    },
    {
      "anonymous": false,
      "inputs": [
        {
          "indexed": true,
          "name": "previousOwner",
          "type": "address"
        },
        {
          "indexed": true,
          "name": "newOwner",
          "type": "address"
        }
      ],
      "name": "OwnershipTransferred",
      "type": "event"
    },
    {
      "constant": false,
      "inputs": [
        {
          "name": "_name",
          "type": "string"
        },
        {
          "name": "_description",
          "type": "string"
        },
        {
          "name": "_location",
          "type": "string"
        }
      ],
      "name": "createProduct",
      "outputs": [
        {
          "name": "",
          "type": "uint256"
        }
      ],
      "payable": false,
      "stateMutability": "nonpayable",
      "type": "function"
    },
    {
      "constant": true,
      "inputs": [
        {
          "name": "index",
          "type": "uint256"
        }
      ],
      "name": "getProductById",
      "outputs": [
        {
          "name": "",
          "type": "string"
        },
        {
          "name": "",
          "type": "string"
        },
        {
          "name": "",
          "type": "string"
        }
      ],
      "payable": false,
      "stateMutability": "view",
      "type": "function"
    },
    {
      "constant": false,
      "inputs": [
        {
          "name": "_productId",
          "type": "uint256"
        },
        {
          "name": "_name",
          "type": "string"
        },
        {
          "name": "_description",
          "type": "string"
        },
        {
          "name": "_location",
          "type": "string"
        }
      ],
      "name": "addProductIteration",
      "outputs": [],
      "payable": false,
      "stateMutability": "nonpayable",
      "type": "function"
    },
    {
      "constant": false,
      "inputs": [
        {
          "name": "_productId",
          "type": "uint256"
        }
      ],
      "name": "_getProductPublicDataById",
      "outputs": [],
      "payable": false,
      "stateMutability": "nonpayable",
      "type": "function"
    }
  ],
  "bytecode": "0x6060604052336000806101000a81548173ffffffffffffffffffffffffffffffffffffffff021916908373ffffffffffffffffffffffffffffffffffffffff1602179055506112ef806100536000396000f3006060604052600436106100ba576000357c0100000000000000000000000000000000000000000000000000000000900463ffffffff1680631cdf92ad146100bf5780633c0359a4146100ff5780633f70c2b4146101c7578063420fadc81461033b578063794e7aba1461039e5780637acc0b20146103c15780638da5cb5b146103ff57806393c0e83a14610454578063a5259dbf146106a8578063d4d0102a14610794578063d768468b146107e1578063f2fde38b146108d8575b600080fd5b34156100ca57600080fd5b6100e96004808035906020019091908035906020019091905050610911565b6040518082815260200191505060405180910390f35b341561010a57600080fd5b6101206004808035906020019091905050610942565b60405180806020018361ffff1661ffff1681526020018281038252848181546001816001161561010002031660029004815260200191508054600181600116156101000203166002900480156101b75780601f1061018c576101008083540402835291602001916101b7565b820191906000526020600020905b81548152906001019060200180831161019a57829003601f168201915b5050935050505060405180910390f35b34156101d257600080fd5b6101e86004808035906020019091905050610982565b60405180806020018060200180602001848103845287818151815260200191508051906020019080838360005b83811015610230578082015181840152602081019050610215565b50505050905090810190601f16801561025d5780820380516001836020036101000a031916815260200191505b50848103835286818151815260200191508051906020019080838360005b8381101561029657808201518184015260208101905061027b565b50505050905090810190601f1680156102c35780820380516001836020036101000a031916815260200191505b50848103825285818151815260200191508051906020019080838360005b838110156102fc5780820151818401526020810190506102e1565b50505050905090810190601f1680156103295780820380516001836020036101000a031916815260200191505b50965050505050505060405180910390f35b341561034657600080fd5b61035c60048080359060200190919050506109a1565b604051808273ffffffffffffffffffffffffffffffffffffffff1673ffffffffffffffffffffffffffffffffffffffff16815260200191505060405180910390f35b34156103a957600080fd5b6103bf60048080359060200190919050506109d4565b005b34156103cc57600080fd5b6103e260048080359060200190919050506109d7565b604051808381526020018281526020019250505060405180910390f35b341561040a57600080fd5b6104126109fb565b604051808273ffffffffffffffffffffffffffffffffffffffff1673ffffffffffffffffffffffffffffffffffffffff16815260200191505060405180910390f35b341561045f57600080fd5b6104756004808035906020019091905050610a20565b604051808060200180602001806020018060200185810385528981815460018160011615610100020316600290048152602001915080546001816001161561010002031660029004801561050a5780601f106104df5761010080835404028352916020019161050a565b820191906000526020600020905b8154815290600101906020018083116104ed57829003601f168201915b505085810384528881815460018160011615610100020316600290048152602001915080546001816001161561010002031660029004801561058d5780601f106105625761010080835404028352916020019161058d565b820191906000526020600020905b81548152906001019060200180831161057057829003601f168201915b50508581038352878181546001816001161561010002031660029004815260200191508054600181600116156101000203166002900480156106105780601f106105e557610100808354040283529160200191610610565b820191906000526020600020905b8154815290600101906020018083116105f357829003601f168201915b50508581038252868181546001816001161561010002031660029004815260200191508054600181600116156101000203166002900480156106935780601f1061066857610100808354040283529160200191610693565b820191906000526020600020905b81548152906001019060200180831161067657829003601f168201915b50509850505050505050505060405180910390f35b34156106b357600080fd5b610792600480803590602001909190803590602001908201803590602001908080601f0160208091040260200160405190810160405280939291908181526020018383808284378201915050505050509190803590602001908201803590602001908080601f0160208091040260200160405190810160405280939291908181526020018383808284378201915050505050509190803590602001908201803590602001908080601f01602080910402602001604051908101604052809392919081815260200183838082843782019150505050505091905050610a5b565b005b341561079f57600080fd5b6107cb600480803573ffffffffffffffffffffffffffffffffffffffff16906020019091905050610b95565b6040518082815260200191505060405180910390f35b34156107ec57600080fd5b6108c2600480803590602001908201803590602001908080601f0160208091040260200160405190810160405280939291908181526020018383808284378201915050505050509190803590602001908201803590602001908080601f0160208091040260200160405190810160405280939291908181526020018383808284378201915050505050509190803590602001908201803590602001908080601f01602080910402602001604051908101604052809392919081815260200183838082843782019150505050505091905050610bad565b6040518082815260200191505060405180910390f35b34156108e357600080fd5b61090f600480803573ffffffffffffffffffffffffffffffffffffffff16906020019091905050610fd4565b005b60066020528160005260406000208181548110151561092c57fe5b9060005260206000209001600091509150505481565b60028181548110151561095157fe5b906000526020600020906002020160009150905080600001908060010160009054906101000a900461ffff16905082565b61098a611129565b610992611129565b61099a611129565b9193909250565b60046020528060005260406000206000915054906101000a900473ffffffffffffffffffffffffffffffffffffffff1681565b50565b60036020528060005260406000206000915090508060000154908060010154905082565b6000809054906101000a900473ffffffffffffffffffffffffffffffffffffffff1681565b600181815481101515610a2f57fe5b906000526020600020906004020160009150905080600001908060010190806002019080600301905084565b600080600360008781526020019081526020016000209150600082600001541415610a8557610b8d565b816002018054806001018281610a9b919061113d565b9160005260206000209060060201600060c06040519081016040528060008152602001428152602001866001015481526020018981526020018881526020018781525090919091506000820151816000015560208201518160010155604082015181600201556060820151816003019080519060200190610b1d92919061116f565b506080820151816004019080519060200190610b3a92919061116f565b5060a0820151816005019080519060200190610b5792919061116f565b5050509050808260020182815481101515610b6e57fe5b9060005260206000209060060201600001819055508082600101819055505b505050505050565b60056020528060005260406000206000915090505481565b6000806000846040518082805190602001908083835b602083101515610be85780518252602082019150602081019050602083039250610bc3565b6001836020036101000a0380198251168184511680821785525050505050509050019150506040518091039020600190049150816003600084815260200190815260200160002060000181905550600360008381526020019081526020016000206002018054806001018281610c5e919061113d565b9160005260206000209060060201600060c06040519081016040528060008152602001428152602001600081526020018a81526020018981526020018881525090919091506000820151816000015560208201518160010155604082015181600201556060820151816003019080519060200190610cdd92919061116f565b506080820151816004019080519060200190610cfa92919061116f565b5060a0820151816005019080519060200190610d1792919061116f565b5050509050806003600084815260200190815260200160002060010181905550806003600084815260200190815260200160002060020182815481101515610d5b57fe5b906000526020600020906006020160000181905550806003600084815260200190815260200160002060020182815481101515610d9457fe5b906000526020600020906006020160020181905550336004600084815260200190815260200160002060006101000a81548173ffffffffffffffffffffffffffffffffffffffff021916908373ffffffffffffffffffffffffffffffffffffffff160217905550600560003373ffffffffffffffffffffffffffffffffffffffff1673ffffffffffffffffffffffffffffffffffffffff168152602001908152602001600020600081548092919060010191905055507f1550ffc404b3c1d24b9e8386fb637b66710fc7771635cf9b09d5ee2ae92963338287878760405180858152602001806020018060200180602001848103845287818151815260200191508051906020019080838360005b83811015610ebd578082015181840152602081019050610ea2565b50505050905090810190601f168015610eea5780820380516001836020036101000a031916815260200191505b50848103835286818151815260200191508051906020019080838360005b83811015610f23578082015181840152602081019050610f08565b50505050905090810190601f168015610f505780820380516001836020036101000a031916815260200191505b50848103825285818151815260200191508051906020019080838360005b83811015610f89578082015181840152602081019050610f6e565b50505050905090810190601f168015610fb65780820380516001836020036101000a031916815260200191505b5097505050505050505060405180910390a181925050509392505050565b6000809054906101000a900473ffffffffffffffffffffffffffffffffffffffff1673ffffffffffffffffffffffffffffffffffffffff163373ffffffffffffffffffffffffffffffffffffffff1614151561102f57600080fd5b600073ffffffffffffffffffffffffffffffffffffffff168173ffffffffffffffffffffffffffffffffffffffff161415151561106b57600080fd5b8073ffffffffffffffffffffffffffffffffffffffff166000809054906101000a900473ffffffffffffffffffffffffffffffffffffffff1673ffffffffffffffffffffffffffffffffffffffff167f8be0079c531659141344cd1fd0a4f28419497f9722a3daafe3b4186f6b6457e060405160405180910390a3806000806101000a81548173ffffffffffffffffffffffffffffffffffffffff021916908373ffffffffffffffffffffffffffffffffffffffff16021790555050565b602060405190810160405280600081525090565b81548183558181151161116a5760060281600602836000526020600020918201910161116991906111ef565b5b505050565b828054600181600116156101000203166002900490600052602060002090601f016020900481019282601f106111b057805160ff19168380011785556111de565b828001600101855582156111de579182015b828111156111dd5782518255916020019190600101906111c2565b5b5090506111eb9190611256565b5090565b61125391905b8082111561124f5760008082016000905560018201600090556002820160009055600382016000611226919061127b565b600482016000611236919061127b565b600582016000611246919061127b565b506006016111f5565b5090565b90565b61127891905b8082111561127457600081600090555060010161125c565b5090565b90565b50805460018160011615610100020316600290046000825580601f106112a157506112c0565b601f0160209004906000526020600020908101906112bf9190611256565b5b505600a165627a7a7230582056505396ec41e42bbccb9a6986ea05858b5db4e02b95ebe1c1bab4f9d74171c80029",
  "source": "pragma solidity ^0.4.19;\n\nimport \"./PassageHelper.sol\";\nimport \"./StringLib.sol\";\n\ncontract PassageMain is PassageHelper {\n    \n    event ProductCreated(uint newProductId, string name, string description, string location);\n\n    // event OwnershipTransferRequest(uint productId, address indexed currentOwner, address indexed newRequestedOwner);\n    \n    event ProductDetailsUpdated(uint productId);\n    \n    event ProductMarkedAsSold(uint productId);\n\n    struct Actor {\n        string name;\n        string physicalAddress; // Physical address, may be separated (more costly)\n        string accountAddress; // Ethereum address\n        // Actor type (industry expert, governmental agency, etc.). \n        //Should be a uint16 and reference another struct maybe?\n        string actorType;\n    }\n\n    struct Certification {\n        string name;\n        uint16 deliveringActor; // Agency/company behind the certification\n    }\n\n    struct ProductIteration {\n        uint iterationId;\n        uint creationDate;\n        uint lastIterationId;\n        string name;\n        string description;\n        string location;\n        //string notes;\n        //string customJsonData;\n        //int latitude; // 6 last digits are decimals (numeric type not supported in solidity)\n        //int longitude;\n        //Certification[] certifications;\n    }\n    \n    struct Product {\n        uint productId; // can be used to generate qrcode\n        uint latestIterationId;\n        ProductIteration[] iterations;\n        // Informations that don't change will be added here.\n\n        //address owner; needed?\n        //address nextAuthorizedOwner; needed?\n    }\n    \n    Actor[] public actors;\n    Certification[] public certifications;\n\n    //Product[] public products;\n    mapping (uint => Product) public products;\n    mapping (uint => address) public productToOwner;\n    mapping (address => uint) public ownerProductCount;\n    mapping (uint => uint[]) public initialProductToSubsequentVersions;\n    // map uint to array of uints : {1 => [1, 4, 8, ]}\n\n    function createProduct(string _name, string _description, string _location) public returns (uint) {\n        // ^ More iteration informations to be added here\n        // Generate a pseudo-random productId\n        uint generatedProductId = uint(keccak256(_description));\n        products[generatedProductId].productId = generatedProductId;\n        // Create its first iteration and assign ids\n        uint initialIterationId = products[generatedProductId].iterations.push(\n            ProductIteration(0, now, 0, _name, _description, _location));\n        products[generatedProductId].latestIterationId = initialIterationId;\n        products[generatedProductId].iterations[initialIterationId].iterationId = initialIterationId;\n        products[generatedProductId].iterations[initialIterationId].lastIterationId = initialIterationId;\n\n        productToOwner[generatedProductId] = msg.sender;\n        ownerProductCount[msg.sender]++;\n        ProductCreated(generatedProductId, _name, _description, _location);\n\n        // User will generate QRCode from this value\n        return generatedProductId;\n    }\n\n    function getProductById(uint index) external view returns(string, string, string) {\n        //return (products[index].name, products[index].description, products[index].location);\n    }\n\n    function addProductIteration(uint _productId, string _name, string _description, string _location) public {\n        // ^ More iteration informations to be added here\n        // ^ Implement onlyOwner logic\n        // ^ _productId is the QRCode value (generated at the moment of creation)\n        Product storage product = products[_productId];\n        if (product.productId == 0) return; // Product doesn't exist. Exit now.\n        uint newIterationId = product.iterations.push(\n            ProductIteration(0, now, product.latestIterationId, _name, _description, _location));\n        product.iterations[newIterationId].iterationId = newIterationId;\n        product.latestIterationId = newIterationId;\n    }\n\n    function _editProduct(uint _productId) private {\n        // Still needed?\n    }\n\n    function _getProductPublicDataById(uint _productId) public {\n        \n    }\n\n    function _markProductAsSold(uint _productId) private {\n        \n    }\n\n    /*\n    function _requestOwnershipTransfer(uint index, address _newOwnerAddress){\n      product[index].nextAuthorizedOwnerAddress = _newOwnerAddress;\n\n    }\n    */\n}",
  "sourcePath": "/Users/Raphael/Documents/Eﾌ…ole/IFT592 - Cours de projet/Passage_Project/contracts/PassageMain.sol",
  "compiler": {
    "name": "solc",
    "version": "0.4.19+commit.c4cbbb05.Emscripten.clang"
  },
  "schemaVersion": "1.0.1",
  "updatedAt": "2018-02-13T20:20:51.596Z"
}