{
  "contractName": "PassageMainContract",
  "abi": [
    {
      "constant": true,
      "inputs": [],
      "name": "owner",
      "outputs": [
        {
          "name": "",
          "type": "address"
        }
      ],
      "payable": false,
      "stateMutability": "view",
      "type": "function"
    },
    {
      "constant": false,
      "inputs": [
        {
          "name": "newOwner",
          "type": "address"
        }
      ],
      "name": "transferOwnership",
      "outputs": [],
      "payable": false,
      "stateMutability": "nonpayable",
      "type": "function"
    },
    {
      "anonymous": false,
      "inputs": [],
      "name": "SpawnProduct",
      "type": "event"
    },
    {
      "anonymous": false,
      "inputs": [
        {
          "indexed": false,
          "name": "_productId",
          "type": "uint256"
        }
      ],
      "name": "EditProduct",
      "type": "event"
    },
    {
      "anonymous": false,
      "inputs": [
        {
          "indexed": false,
          "name": "_productId",
          "type": "uint256"
        }
      ],
      "name": "MarkProductAsSold",
      "type": "event"
    },
    {
      "anonymous": false,
      "inputs": [
        {
          "indexed": true,
          "name": "previousOwner",
          "type": "address"
        },
        {
          "indexed": true,
          "name": "newOwner",
          "type": "address"
        }
      ],
      "name": "OwnershipTransferred",
      "type": "event"
    },
    {
      "constant": false,
      "inputs": [],
      "name": "spawnProduct",
      "outputs": [],
      "payable": false,
      "stateMutability": "nonpayable",
      "type": "function"
    },
    {
      "constant": false,
      "inputs": [
        {
          "name": "_productId",
          "type": "uint256"
        }
      ],
      "name": "editProduct",
      "outputs": [],
      "payable": false,
      "stateMutability": "nonpayable",
      "type": "function"
    },
    {
      "constant": false,
      "inputs": [
        {
          "name": "_productId",
          "type": "uint256"
        }
      ],
      "name": "getProductPublicDataById",
      "outputs": [],
      "payable": false,
      "stateMutability": "nonpayable",
      "type": "function"
    },
    {
      "constant": false,
      "inputs": [
        {
          "name": "_productId",
          "type": "uint256"
        }
      ],
      "name": "markProductAsSold",
      "outputs": [],
      "payable": false,
      "stateMutability": "nonpayable",
      "type": "function"
    }
  ],
  "bytecode": "0x6060604052336000806101000a81548173ffffffffffffffffffffffffffffffffffffffff021916908373ffffffffffffffffffffffffffffffffffffffff16021790555061033a806100536000396000f300606060405260043610610078576000357c0100000000000000000000000000000000000000000000000000000000900463ffffffff168063578e34961461007d578063888649b8146100925780638da5cb5b146100b5578063b8f0d9681461010a578063f2fde38b1461012d578063feca05aa14610166575b600080fd5b341561008857600080fd5b610090610189565b005b341561009d57600080fd5b6100b3600480803590602001909190505061018b565b005b34156100c057600080fd5b6100c861018e565b604051808273ffffffffffffffffffffffffffffffffffffffff1673ffffffffffffffffffffffffffffffffffffffff16815260200191505060405180910390f35b341561011557600080fd5b61012b60048080359060200190919050506101b3565b005b341561013857600080fd5b610164600480803573ffffffffffffffffffffffffffffffffffffffff169060200190919050506101b6565b005b341561017157600080fd5b610187600480803590602001909190505061030b565b005b565b50565b6000809054906101000a900473ffffffffffffffffffffffffffffffffffffffff1681565b50565b6000809054906101000a900473ffffffffffffffffffffffffffffffffffffffff1673ffffffffffffffffffffffffffffffffffffffff163373ffffffffffffffffffffffffffffffffffffffff1614151561021157600080fd5b600073ffffffffffffffffffffffffffffffffffffffff168173ffffffffffffffffffffffffffffffffffffffff161415151561024d57600080fd5b8073ffffffffffffffffffffffffffffffffffffffff166000809054906101000a900473ffffffffffffffffffffffffffffffffffffffff1673ffffffffffffffffffffffffffffffffffffffff167f8be0079c531659141344cd1fd0a4f28419497f9722a3daafe3b4186f6b6457e060405160405180910390a3806000806101000a81548173ffffffffffffffffffffffffffffffffffffffff021916908373ffffffffffffffffffffffffffffffffffffffff16021790555050565b505600a165627a7a72305820301832162aca6be9286343638ce051b2338ed2272fd5f2ede690f5adb7446b4b0029",
  "source": "pragma solidity ^0.4.19;\n\nimport \"./PassageMethodModifiers.sol\";\n\ncontract PassageMainContract is PassageMethodModifiers {\n    \n    event SpawnProduct();\n    \n    event EditProduct(uint _productId);\n    \n    event MarkProductAsSold(uint _productId);\n    \n    struct Product {\n        //id / rfid / qrCode\n        uint id;\n        string slug;\n        string description;\n        //currentLocation\n        //certifications\n        //...\n    }\n    \n    struct IndustryExpert {\n        uint id;\n        string name;\n        string location; //Address, may be seperated (more costly)\n        //...\n    }\n    \n    struct Official {\n        uint id;\n        string name;\n        string location;\n        //...\n    }\n    \n    function spawnProduct() {\n        \n    }\n\n    function editProduct(uint _productId) {\n        \n    }\n\n    function getProductPublicDataById(uint _productId) {\n        \n    }\n\n    function markProductAsSold(uint _productId) {\n        \n    }\n}",
  "sourcePath": "/home/mv/edu/usherbrooke/s5-h18/ige592/Passage_Project/contracts/PassageMainContract.sol",
  "compiler": {
    "name": "solc",
    "version": "0.4.19+commit.c4cbbb05.Emscripten.clang"
  },
  "schemaVersion": "1.0.1",
  "updatedAt": "2018-02-06T22:18:55.349Z"
}