{
  "contractName": "PassageMain",
  "abi": [
    {
      "constant": true,
      "inputs": [
        {
          "name": "",
          "type": "uint256"
        },
        {
          "name": "",
          "type": "uint256"
        }
      ],
      "name": "initialProductToSubsequentVersions",
      "outputs": [
        {
          "name": "",
          "type": "uint256"
        }
      ],
      "payable": false,
      "stateMutability": "view",
      "type": "function"
    },
    {
      "constant": true,
      "inputs": [
        {
          "name": "",
          "type": "uint256"
        }
      ],
      "name": "certifications",
      "outputs": [
        {
          "name": "name",
          "type": "string"
        },
        {
          "name": "deliveringActor",
          "type": "uint16"
        }
      ],
      "payable": false,
      "stateMutability": "view",
      "type": "function"
    },
    {
      "constant": true,
      "inputs": [
        {
          "name": "",
          "type": "uint256"
        }
      ],
      "name": "products",
      "outputs": [
        {
          "name": "name",
          "type": "string"
        },
        {
          "name": "description",
          "type": "string"
        },
        {
          "name": "location",
          "type": "string"
        }
      ],
      "payable": false,
      "stateMutability": "view",
      "type": "function"
    },
    {
      "constant": true,
      "inputs": [],
      "name": "owner",
      "outputs": [
        {
          "name": "",
          "type": "address"
        }
      ],
      "payable": false,
      "stateMutability": "view",
      "type": "function"
    },
    {
      "constant": true,
      "inputs": [
        {
          "name": "",
          "type": "uint256"
        }
      ],
      "name": "actors",
      "outputs": [
        {
          "name": "name",
          "type": "string"
        },
        {
          "name": "physicalAddress",
          "type": "string"
        },
        {
          "name": "accountAddress",
          "type": "string"
        },
        {
          "name": "actorType",
          "type": "string"
        }
      ],
      "payable": false,
      "stateMutability": "view",
      "type": "function"
    },
    {
      "constant": false,
      "inputs": [
        {
          "name": "newOwner",
          "type": "address"
        }
      ],
      "name": "transferOwnership",
      "outputs": [],
      "payable": false,
      "stateMutability": "nonpayable",
      "type": "function"
    },
    {
      "anonymous": false,
      "inputs": [
        {
          "indexed": false,
          "name": "newProductId",
          "type": "uint256"
        },
        {
          "indexed": false,
          "name": "name",
          "type": "string"
        },
        {
          "indexed": false,
          "name": "description",
          "type": "string"
        },
        {
          "indexed": false,
          "name": "location",
          "type": "string"
        }
      ],
      "name": "ProductCreated",
      "type": "event"
    },
    {
      "anonymous": false,
      "inputs": [
        {
          "indexed": false,
          "name": "productId",
          "type": "uint256"
        }
      ],
      "name": "ProductDetailsUpdated",
      "type": "event"
    },
    {
      "anonymous": false,
      "inputs": [
        {
          "indexed": false,
          "name": "productId",
          "type": "uint256"
        }
      ],
      "name": "ProductMarkedAsSold",
      "type": "event"
    },
    {
      "anonymous": false,
      "inputs": [
        {
          "indexed": true,
          "name": "previousOwner",
          "type": "address"
        },
        {
          "indexed": true,
          "name": "newOwner",
          "type": "address"
        }
      ],
      "name": "OwnershipTransferred",
      "type": "event"
    },
    {
      "constant": false,
      "inputs": [
        {
          "name": "_name",
          "type": "string"
        },
        {
          "name": "_description",
          "type": "string"
        },
        {
          "name": "_location",
          "type": "string"
        }
      ],
      "name": "createProduct",
      "outputs": [],
      "payable": false,
      "stateMutability": "nonpayable",
      "type": "function"
    },
    {
      "constant": true,
      "inputs": [
        {
          "name": "index",
          "type": "uint256"
        }
      ],
      "name": "getProductById",
      "outputs": [
        {
          "name": "",
          "type": "string"
        },
        {
          "name": "",
          "type": "string"
        },
        {
          "name": "",
          "type": "string"
        }
      ],
      "payable": false,
      "stateMutability": "view",
      "type": "function"
    },
    {
      "constant": false,
      "inputs": [
        {
          "name": "_productId",
          "type": "uint256"
        }
      ],
      "name": "_editProduct",
      "outputs": [],
      "payable": false,
      "stateMutability": "nonpayable",
      "type": "function"
    },
    {
      "constant": false,
      "inputs": [
        {
          "name": "_productId",
          "type": "uint256"
        }
      ],
      "name": "_getProductPublicDataById",
      "outputs": [],
      "payable": false,
      "stateMutability": "nonpayable",
      "type": "function"
    },
    {
      "constant": false,
      "inputs": [
        {
          "name": "_productId",
          "type": "uint256"
        }
      ],
      "name": "_markProductAsSold",
      "outputs": [],
      "payable": false,
      "stateMutability": "nonpayable",
      "type": "function"
    }
  ],
  "bytecode": "0x6060604052336000806101000a81548173ffffffffffffffffffffffffffffffffffffffff021916908373ffffffffffffffffffffffffffffffffffffffff1602179055506111be806100536000396000f3006060604052600436106100af576000357c0100000000000000000000000000000000000000000000000000000000900463ffffffff1680631cdf92ad146100b45780633c0359a4146100f45780633f70c2b4146101bc5780637813adaa14610330578063794e7aba146103535780637acc0b20146103765780638da5cb5b1461054157806393c0e83a146105965780639c529d2a146107ea578063d768468b1461080d578063f2fde38b146108f0575b600080fd5b34156100bf57600080fd5b6100de6004808035906020019091908035906020019091905050610929565b6040518082815260200191505060405180910390f35b34156100ff57600080fd5b610115600480803590602001909190505061095a565b60405180806020018361ffff1661ffff1681526020018281038252848181546001816001161561010002031660029004815260200191508054600181600116156101000203166002900480156101ac5780601f10610181576101008083540402835291602001916101ac565b820191906000526020600020905b81548152906001019060200180831161018f57829003601f168201915b5050935050505060405180910390f35b34156101c757600080fd5b6101dd600480803590602001909190505061099a565b60405180806020018060200180602001848103845287818151815260200191508051906020019080838360005b8381101561022557808201518184015260208101905061020a565b50505050905090810190601f1680156102525780820380516001836020036101000a031916815260200191505b50848103835286818151815260200191508051906020019080838360005b8381101561028b578082015181840152602081019050610270565b50505050905090810190601f1680156102b85780820380516001836020036101000a031916815260200191505b50848103825285818151815260200191508051906020019080838360005b838110156102f15780820151818401526020810190506102d6565b50505050905090810190601f16801561031e5780820380516001836020036101000a031916815260200191505b50965050505050505060405180910390f35b341561033b57600080fd5b6103516004808035906020019091905050610bf3565b005b341561035e57600080fd5b6103746004808035906020019091905050610bf6565b005b341561038157600080fd5b6103976004808035906020019091905050610bf9565b604051808060200180602001806020018481038452878181546001816001161561010002031660029004815260200191508054600181600116156101000203166002900480156104285780601f106103fd57610100808354040283529160200191610428565b820191906000526020600020905b81548152906001019060200180831161040b57829003601f168201915b50508481038352868181546001816001161561010002031660029004815260200191508054600181600116156101000203166002900480156104ab5780601f10610480576101008083540402835291602001916104ab565b820191906000526020600020905b81548152906001019060200180831161048e57829003601f168201915b505084810382528581815460018160011615610100020316600290048152602001915080546001816001161561010002031660029004801561052e5780601f106105035761010080835404028352916020019161052e565b820191906000526020600020905b81548152906001019060200180831161051157829003601f168201915b5050965050505050505060405180910390f35b341561054c57600080fd5b610554610c2f565b604051808273ffffffffffffffffffffffffffffffffffffffff1673ffffffffffffffffffffffffffffffffffffffff16815260200191505060405180910390f35b34156105a157600080fd5b6105b76004808035906020019091905050610c54565b604051808060200180602001806020018060200185810385528981815460018160011615610100020316600290048152602001915080546001816001161561010002031660029004801561064c5780601f106106215761010080835404028352916020019161064c565b820191906000526020600020905b81548152906001019060200180831161062f57829003601f168201915b50508581038452888181546001816001161561010002031660029004815260200191508054600181600116156101000203166002900480156106cf5780601f106106a4576101008083540402835291602001916106cf565b820191906000526020600020905b8154815290600101906020018083116106b257829003601f168201915b50508581038352878181546001816001161561010002031660029004815260200191508054600181600116156101000203166002900480156107525780601f1061072757610100808354040283529160200191610752565b820191906000526020600020905b81548152906001019060200180831161073557829003601f168201915b50508581038252868181546001816001161561010002031660029004815260200191508054600181600116156101000203166002900480156107d55780601f106107aa576101008083540402835291602001916107d5565b820191906000526020600020905b8154815290600101906020018083116107b857829003601f168201915b50509850505050505050505060405180910390f35b34156107f557600080fd5b61080b6004808035906020019091905050610c8f565b005b341561081857600080fd5b6108ee600480803590602001908201803590602001908080601f0160208091040260200160405190810160405280939291908181526020018383808284378201915050505050509190803590602001908201803590602001908080601f0160208091040260200160405190810160405280939291908181526020018383808284378201915050505050509190803590602001908201803590602001908080601f01602080910402602001604051908101604052809392919081815260200183838082843782019150505050505091905050610c92565b005b34156108fb57600080fd5b610927600480803573ffffffffffffffffffffffffffffffffffffffff16906020019091905050610ebb565b005b60046020528160005260406000208181548110151561094457fe5b9060005260206000209001600091509150505481565b60028181548110151561096957fe5b906000526020600020906002020160009150905080600001908060010160009054906101000a900461ffff16905082565b6109a2611010565b6109aa611010565b6109b2611010565b6003848154811015156109c157fe5b90600052602060002090600302016000016003858154811015156109e157fe5b9060005260206000209060030201600101600386815481101515610a0157fe5b9060005260206000209060030201600201828054600181600116156101000203166002900480601f016020809104026020016040519081016040528092919081815260200182805460018160011615610100020316600290048015610aa75780601f10610a7c57610100808354040283529160200191610aa7565b820191906000526020600020905b815481529060010190602001808311610a8a57829003601f168201915b50505050509250818054600181600116156101000203166002900480601f016020809104026020016040519081016040528092919081815260200182805460018160011615610100020316600290048015610b435780601f10610b1857610100808354040283529160200191610b43565b820191906000526020600020905b815481529060010190602001808311610b2657829003601f168201915b50505050509150808054600181600116156101000203166002900480601f016020809104026020016040519081016040528092919081815260200182805460018160011615610100020316600290048015610bdf5780601f10610bb457610100808354040283529160200191610bdf565b820191906000526020600020905b815481529060010190602001808311610bc257829003601f168201915b505050505090509250925092509193909250565b50565b50565b600381815481101515610c0857fe5b90600052602060002090600302016000915090508060000190806001019080600201905083565b6000809054906101000a900473ffffffffffffffffffffffffffffffffffffffff1681565b600181815481101515610c6357fe5b906000526020600020906004020160009150905080600001908060010190806002019080600301905084565b50565b6000600160038054806001018281610caa9190611024565b916000526020600020906003020160006060604051908101604052808981526020018881526020018781525090919091506000820151816000019080519060200190610cf7929190611056565b506020820151816001019080519060200190610d14929190611056565b506040820151816002019080519060200190610d31929190611056565b5050500390507f1550ffc404b3c1d24b9e8386fb637b66710fc7771635cf9b09d5ee2ae92963338185858560405180858152602001806020018060200180602001848103845287818151815260200191508051906020019080838360005b83811015610daa578082015181840152602081019050610d8f565b50505050905090810190601f168015610dd75780820380516001836020036101000a031916815260200191505b50848103835286818151815260200191508051906020019080838360005b83811015610e10578082015181840152602081019050610df5565b50505050905090810190601f168015610e3d5780820380516001836020036101000a031916815260200191505b50848103825285818151815260200191508051906020019080838360005b83811015610e76578082015181840152602081019050610e5b565b50505050905090810190601f168015610ea35780820380516001836020036101000a031916815260200191505b5097505050505050505060405180910390a150505050565b6000809054906101000a900473ffffffffffffffffffffffffffffffffffffffff1673ffffffffffffffffffffffffffffffffffffffff163373ffffffffffffffffffffffffffffffffffffffff16141515610f1657600080fd5b600073ffffffffffffffffffffffffffffffffffffffff168173ffffffffffffffffffffffffffffffffffffffff1614151515610f5257600080fd5b8073ffffffffffffffffffffffffffffffffffffffff166000809054906101000a900473ffffffffffffffffffffffffffffffffffffffff1673ffffffffffffffffffffffffffffffffffffffff167f8be0079c531659141344cd1fd0a4f28419497f9722a3daafe3b4186f6b6457e060405160405180910390a3806000806101000a81548173ffffffffffffffffffffffffffffffffffffffff021916908373ffffffffffffffffffffffffffffffffffffffff16021790555050565b602060405190810160405280600081525090565b8154818355818115116110515760030281600302836000526020600020918201910161105091906110d6565b5b505050565b828054600181600116156101000203166002900490600052602060002090601f016020900481019282601f1061109757805160ff19168380011785556110c5565b828001600101855582156110c5579182015b828111156110c45782518255916020019190600101906110a9565b5b5090506110d29190611125565b5090565b61112291905b8082111561111e57600080820160006110f5919061114a565b600182016000611105919061114a565b600282016000611115919061114a565b506003016110dc565b5090565b90565b61114791905b8082111561114357600081600090555060010161112b565b5090565b90565b50805460018160011615610100020316600290046000825580601f10611170575061118f565b601f01602090049060005260206000209081019061118e9190611125565b5b505600a165627a7a72305820d5c3ceac93ab8811f8cd71afdfcd72229ae1f1ef6def1c7d5c00759fcc6601e50029",
  "source": "pragma solidity ^0.4.19;\n\nimport \"./PassageHelper.sol\";\n\ncontract PassageMain is PassageHelper {\n    \n    event ProductCreated(uint newProductId, string name, string description, string location);\n\n    // event OwnershipTransferRequest(uint productId, address indexed currentOwner, address indexed newRequestedOwner);\n    \n    event ProductDetailsUpdated(uint productId);\n    \n    event ProductMarkedAsSold(uint productId);\n\n    struct Actor {\n        string name;\n        string physicalAddress; // Physical address, may be separated (more costly)\n        string accountAddress; // Ethereum address\n        string actorType; // Actor type (industry expert, governmental agency, etc.). Should be a uint16 and reference another struct maybe?\n    }\n\n    struct Certification {\n        string name;\n        uint16 deliveringActor; // Agency/company behind the certification\n    }\n    \n    struct Product {\n        string name;\n        string description;\n        //string qrCode; // base64 representation of the QR code?\n        string location;\n        //Certification[] certifications;\n    }\n\n    Actor[] public actors;\n    Certification[] public certifications;\n    Product[] public products;\n\n    mapping (uint => uint[]) public initialProductToSubsequentVersions;\n    // map uint to array of uints : {1 => [1, 4, 8, ]}\n\n    function createProduct(string _name, string _description, string _location) public {\n        uint newProductId = products.push(Product(_name, _description, _location)) - 1;\n        ProductCreated(newProductId, _name, _description, _location);\n    }\n\n    function getProductById(uint index) external view returns(string, string, string) {\n        return (products[index].name, products[index].description, products[index].location);\n    }\n\n    function _editProduct(uint _productId) {\n        \n    }\n\n    function _getProductPublicDataById(uint _productId) {\n        \n    }\n\n    function _markProductAsSold(uint _productId) {\n        \n    }\n\n    /*\n    function _requestOwnershipTransfer(uint index, address _newOwnerAddress){\n      product[index].nextAuthorizedOwnerAddress = _newOwnerAddress;\n\n    }\n    */\n}",
  "sourcePath": "/home/mv/edu/usherbrooke/s5-h18/ige592/Passage_Project/contracts/PassageMain.sol",
  "compiler": {
    "name": "solc",
    "version": "0.4.19+commit.c4cbbb05.Emscripten.clang"
  },
  "schemaVersion": "1.0.1",
  "updatedAt": "2018-02-13T19:17:13.122Z"
}