{
  "contractName": "StringUtils",
  "abi": [
    {
      "constant": true,
      "inputs": [
        {
          "name": "v",
          "type": "uint256"
        }
      ],
      "name": "uintToBytes",
      "outputs": [
        {
          "name": "ret",
          "type": "bytes32"
        }
      ],
      "payable": false,
      "stateMutability": "view",
      "type": "function"
    },
    {
      "constant": true,
      "inputs": [
        {
          "name": "v",
          "type": "bytes32"
        }
      ],
      "name": "bytesToUInt",
      "outputs": [
        {
          "name": "ret",
          "type": "uint256"
        }
      ],
      "payable": false,
      "stateMutability": "view",
      "type": "function"
    }
  ],
  "bytecode": "0x6060604052341561000f57600080fd5b6102178061001e6000396000f30060606040526004361061004c576000357c0100000000000000000000000000000000000000000000000000000000900463ffffffff16806381a33a6f1461005157806394e8767d14610081575b600080fd5b61006b6004808035600019169060200190919050506100b5565b6040518082815260200191505060405180910390f35b6100976004808035906020019091905050610154565b60405180826000191660001916815260200191505060405180910390f35b600073__StringLib_____________________________381a33a6f836000604051602001526040518263ffffffff167c010000000000000000000000000000000000000000000000000000000002815260040180826000191660001916815260200191505060206040518083038186803b151561013257600080fd5b6102c65a03f4151561014357600080fd5b505050604051805190509050919050565b600073___StringLib_____________________________94e8767d836000604051602001526040518263ffffffff167c01000000000000000000000000000000000000000000000000000000000281526004018082815260200191505060206040518083038186803b15156101c957600080fd5b6102c65a03f415156101da57600080fd5b5050506040518051905090509190505600a165627a7a72305820cd8bac87b76c807bd0f7d90b8e76ed5945fe17336cb150a1d7295866dc80b0a80029",
  "source": "// String Utils v0.1\npragma solidity ^0.4.19;\n/// @title String Utils - String utility functions\n/// @author Piper Merriam - <pipermerriam@gmail.com>\nlibrary StringLib {\n    /// @dev Converts an unsigned integert to its string representation.\n    /// @param v The number to be converted.\n    function uintToBytes(uint v) constant returns (bytes32 ret) {\n        if (v == 0) {\n            ret = '0';\n        }\n        else {\n            while (v > 0) {\n                ret = bytes32(uint(ret) / (2 ** 8));\n                ret |= bytes32(((v % 10) + 48) * 2 ** (8 * 31));\n                v /= 10;\n            }\n        }\n        return ret;\n    }\n\n    /// @dev Converts a numeric string to it's unsigned integer representation.\n    /// @param v The string to be converted.\n    function bytesToUInt(bytes32 v) constant returns (uint ret) {\n        if (v == 0x0) {\n            throw;\n        }\n\n        uint digit;\n\n        for (uint i = 0; i < 32; i++) {\n            digit = uint((uint(v) / (2 ** (8 * (31 - i)))) & 0xff);\n            if (digit == 0) {\n                break;\n            }\n            else if (digit < 48 || digit > 57) {\n                throw;\n            }\n            ret *= 10;\n            ret += (digit - 48);\n        }\n        return ret;\n    }\n}\n\n\n/// @title String Utils - String utility functions\n/// @author Piper Merriam - <pipermerriam@gmail.com>\nlibrary StringUtils {\n    /// @dev Converts an unsigned integert to its string representation.\n    /// @param v The number to be converted.\n    function uintToBytes(uint v) constant returns (bytes32 ret) {\n            return StringLib.uintToBytes(v);\n    }\n\n    /// @dev Converts a numeric string to it's unsigned integer representation.\n    /// @param v The string to be converted.\n    function bytesToUInt(bytes32 v) constant returns (uint ret) {\n            return StringLib.bytesToUInt(v);\n    }\n}\n",
  "sourcePath": "/Users/Raphael/Documents/École/IFT592 - Cours de projet/Passage_Project/contracts/StringLib.sol",
  "compiler": {
    "name": "solc",
    "version": "0.4.19+commit.c4cbbb05.Emscripten.clang"
  },
  "schemaVersion": "1.0.1",
  "updatedAt": "2018-02-13T20:01:55.194Z"
}